S016000041726475696E6F49676E697465722E737265636A
S11300000C945F000C9487000C9487000C94870078
S11300100C9487000C9487000C9487000C94870040
S11300200C9487000C9487000C9487000C94870030
S11300300C9487000C9487000C9487000C94870020
S11300400C9482070C9487000C94A4060C94D60696
S11300500C9487000C9487000C9487000C94870000
S11300600C9487000C948700000000080002010033
S1130070000304070000000000000000010204085F
S113008010204080010204081020010204081020FE
S1130090040404040404040402020202020203032A
S11300A00303030300000000250028002B000000C8
S11300B00000240027002A00BD020607C9021124FB
S11300C01FBECFEFD8E0DEBFCDBF11E0A0E0B1E0AE
S11300D0EAE3FDE102C005900D92AE39B107D9F70C
S11300E022E0AEE9B1E001C01D92A937B207E1F701
S11300F010E0CEE5D0E004C02197FE010E94BD0BC4
S1130100CC35D107C9F70E9434070C94900E0C9497
S11301100000CF93DF93CDB7DEB72C970FB6F894DA
S1130120DEBF0FBECDBF26E040E855E260E070E0E0
S11301308FEC91E00E943F0661E08DE00E94AE08E2
S113014061E08DE00E94EA088CE0E7E0F1E0DE0186
S1130150119601900D928A95E1F7BE016F5F7F4F72
S11301608EE991E00E94EF042C960FB6F894DEBF5E
S11301700FBECDBFDF91CF910895EF92FF920F9301
S11301801F93CF93DF93CDB7DEB7A7970FB6F8943D
S1130190DEBF0FBECDBF04E811E088EBE82E81E09E
S11301A0F82EF80180810E5F1F4F0E946808F70146
S11301B0819391937F01F1E00C381F0791F76091CF
S11301C0BE017091BF014AE0CE0109960E94350A32
S11301D06091BC017091BD018E01005F1F4F4AE028
S11301E0C8010E94350A6091BA017091BB014AE0CE
S11301F0CE0146960E94350A6091B8017091B9010A
S11302004AE0CE0182960E94350A61E4CE014C9602
S11302100E941D0ABE016E5D7F4FCE014C960E9466
S1130220A20A62E40E94B50ABE016A5E7F4F0E9480
S1130230A20A63E40E94B50AB8010E94A20A64E417
S11302400E94B50ABE01675F7F4F0E94A20ABC01EB
S1130250CE0101960E94F10944E4BE016F5F7F4F15
S113026080EC91E00E946C03CE0101960E941A0971
S1130270CE014C960E941A09CE0182960E941A0958
S1130280CE0146960E941A09C8010E941A09CE019D
S113029009960E941A0980EC91E00E9458046CE2CD
S11302A071E080E090E00E94F10788EC91E00E9408
S11302B00003882309F454C168EC71E0CE01099667
S11302C00E94F1098091CE018F87BE01675F7F4F45
S11302D0CE0101960E942804CE0109960E941A09B3
S11302E088EC91E00E94F502CE0101960E949E03E3
S11302F0833409F0FBC0BE016F5F7F4FCE010996C6
S11303000E94A10365E271E0CE0109960E94C30A2E
S1130310F82ECE0109960E941A09FF2059F161E0D6
S11303208DE00E94EA0886E0E3E1F1E0D801019063
S11303300D928A95E1F7B8018EE991E00E94B50427
S11303408EE991E00E94260569E271E0CE010996EA
S11303500E9488094DE4BE01675F7F4F80EC91E005
S11303600E946C03CE0109960E941A0980EC91E068
S11303700E945804BE016F5F7F4FCE0109960E9410
S1130380A10367E371E0CE0109960E94C30AF82E27
S1130390CE0109960E941A09FF2061F160E08DE008
S11303A00E94EA0886E0E9E1F1E0DE01509601905E
S11303B00D928A95E1F7B8018EE991E00E94B504A7
S11303C08EE991E00E9426056CE371E0CE01099666
S11303D00E9488094DE4BE01675F7F4F80EC91E085
S11303E00E946C03CE0109960E941A0980EC91E0E8
S11303F00E945804BE016F5F7F4FCE0109960E9490
S1130400A1036BE471E0CE0109960E94C30AF82EA1
S1130410CE0109960E941A09FF2061F161E08DE086
S11304200E94EA0886E0EFE1F1E0DE0150960190D7
S11304300D928A95E1F7B8018EE991E00E94B50426
S11304408EE991E00E94260561E571E0CE010996EE
S11304500E9488094DE4BE01675F7F4F80EC91E004
S11304600E946C03CE0109960E941A0980EC91E067
S11304700E945804BE016F5F7F4FCE0109960E940F
S1130480A10361E671E0CE0109960E94C30AF82E29
S1130490CE0109960E941A09FF2041F160E08DE027
S11304A00E94EA0886E0F80111928A95E9F7B801FA
S11304B08EE991E00E94B5048EE991E00E94260540
S11304C067E671E0CE0109960E9488094DE4BE01F9
S11304D0675F7F4F80EC91E00E946C03CE01099628
S11304E00E941A0980EC91E00E945804CE01019602
S11304F00E949E03863581F5BE016F5F7F4FCE015A
S113050009960E94A103CE0109960E948F0B162F13
S1130510CE0109960E941A09612F70E08EE991E0DC
S11305200E94DC048EE991E00E94260566E771E0F2
S1130530CE0109960E9488094DE4BE01675F7F4F92
S113054080EC91E00E946C03CE0109960E941A0986
S113055080EC91E00E945804CE0101960E941A0991
S1130560A7960FB6F894DEBF0FBECDBFDF91CF9133
S11305701F910F91FF90EF90089588EC91E00E94F5
S1130580E10280EC91E00E9431038EE991E00C9449
S11305909B0480EB91E00E941A0980EC91E00E9498
S11305A01A0988EC91E00C941A098FEC91E00E94EE
S11305B06305892B29F088EC91E00E941D03F5CF97
S11305C00895CF93DF93EC0163E871E00E948809FA
S11305D063E871E0CE010E94060A1E8268EC70E0B6
S11305E0CE01DF91CF910C944B09CF93DF93EC01B3
S11305F063E871E00E94060A1E82DF91CF9108959C
S1130600FC01868108950895CF93DF93653051F4FA
S1130610EC0166E08FEC91E00E94D005CE010E94CF
S1130620F50205C0643029F421E0FC01268381E051
S113063001C080E0DF91CF9108951F93CF93DF93A2
S1130640EC018FEC91E00E947D05182F682FCE01FC
S11306500E948F0A612FCE01DF91CF911F910C94DC
S11306600403CF93DF93EC0163E871E00E948809EF
S113067063E871E0CE010E94060A1F821E82DF91A8
S1130680CF910895CF93DF93EC010E948F0A8E815E
S11306908F5F8E83DF91CF910895CF93DF93EC0129
S11306A060E070E00E948B0B1E82DF91CF91089571
S11306B00F931F93CF93DF93EC018B010E944D03A3
S11306C0B801CE010E94DA09F80184818E83DF919A
S11306D0CF911F910F910895FF920F931F93CF9382
S11306E0DF9300D000D000D0CDB7DEB78C01F42E5C
S11306F0CE0101960E94F109BE016F5F7F4FC801D0
S11307000E945803CE0101960E941A09F801F7824B
S113071026960FB6F894DEBF0FBECDBFDF91CF9102
S11307201F910F91FF900895FC018681882321F089
S113073081E09781911101C080E00895FC018781D7
S11307400895CF93DF93EC010E94F109CE01DF916C
S1130750CF910895CF92DF92EF92FF920F931F9360
S1130760CF93DF9300D000D000D0CDB7DEB77C01AB
S11307708B0161E0C8010E940F0B97FD06C064E085
S1130780C8010E940F0B97FF02C080E052C064E0D2
S1130790C8010E940F0B6C0161E0C8010E940F0B9D
S11307A09601AC01B801CE0101960E94130BBE0163
S11307B06F5F7F4FC8010E94FA09CE0101960E9423
S11307C01A0961E070E0C8010E94F30AF701878307
S11307D062E070E0C8010E94F30AD82E63E070E082
S11307E0C8010E94F30A9D2D9F70F0E4FD1508F4E2
S11307F0975F9295907F813410F08F70875F282FD8
S11308002F70292BF701268330E02B5F3F4F45E003
S113081050E0B801CE0101960E94130BBE016F5F38
S11308207F4FC7010E945803CE0101960E941A0906
S113083081E026960FB6F894DEBF0FBECDBFDF91E0
S1130840CF911F910F91FF90EF90DF90CF9008957B
S1130850EF92FF920F931F93CF93DF93CDB7DEB741
S113086028970FB6F894DEBF0FBECDBF8C017B0175
S113087063E871E00E948809CE0101960E94310369
S1130880CE0101960E941A09C7010E940303BC010C
S1130890C8010E94AA0328960FB6F894DEBF0FBEC3
S11308A0CDBFDF91CF911F910F91FF90EF900895ED
S11308B01F93CF93DF93EC010E949403182F882396
S11308C0A9F161E08FEC91E00E94D0056F818FEC7B
S11308D091E00E947B076E81607F70E084E07595F3
S11308E067958A95E1F76A3010F0695C01C0605D34
S11308F08FEC91E00E947B076E816F706A3010F07C
S1130900695C01C0605D8FEC91E00E947B0762E04E
S11309108FEC91E00E94D005BE018FEC91E00E9423
S11309206D0764E08FEC91E00E94D005812FDF9188
S1130930CF911F9108950F931F93CF93DF93EC01F1
S11309408C010E5E1F4FC8010E943103FE013C96CC
S11309508FEF9FEF119289939993E017F107D1F7E5
S1130960DF91CF911F910F910895CF92DF92EF9273
S1130970FF920F931F93CF93DF937B018C01045F4E
S11309801F4FEC016C0182E1C80ED11CF70161918B
S11309907F01F80161938F01888122960E94EA0801
S11309A00C151D0599F7DF91CF911F910F91FF90C1
S11309B0EF90DF90CF900895FC019B01DC01A60F1E
S11309C0B71F1C966C911C9791E069271C966C9339
S11309D0220F331FE20FF31F80810C94EA08AF92B9
S11309E0BF92CF92DF92EF92FF920F931F93CF9318
S11309F0DF938B01EC017C018CE0E80EF11C6701B4
S1130A005E0160E088810E94EA08F801808191819A
S1130A100E5F1F4F8883998360E00E94EA08229644
S1130A2061E0F50180810E94AE08F60111926F0128
S1130A30CE15DF0529F7DF91CF911F910F91FF901C
S1130A40EF90DF90CF90BF90AF900895EF92FF9218
S1130A500F931F93CF93DF9300D000D000D0CDB776
S1130A60DEB78C0163E871E0CE0101960E9488092B
S1130A70780182E1E80EF11C46E5BE016F5F7F4F0D
S1130A80C7010E946C03CE0101960E941A09045FFB
S1130A901F4FF80161918F01605DC7010E944203FD
S1130AA00E151F05B1F7C8010E94580426960FB60B
S1130AB0F894DEBF0FBECDBFDF91CF911F910F9190
S1130AC0FF90EF900895FC01918D228D892F90E085
S1130AD0805C9F4F821B91098F7399270895FC01B5
S1130AE0918D828D981731F0828DE80FF11D858DDF
S1130AF090E008958FEF9FEF0895FC01918D828D12
S1130B00981761F0828DDF01A80FB11D5D968C915D
S1130B10928D9F5F9F73928F90E008958FEF9FEF68
S1130B200895FC01538D448D252F30E0842F90E0EF
S1130B30821B930B541710F0CF96089501970895D4
S1130B408CEF96E0892B49F085ED92E0892B29F012
S1130B500E94FC0681110C94D5020895FC01848D39
S1130B60DF01A80FB11DA35ABF4F2C91848D90E0D3
S1130B7001968F739927848FA689B7892C93A089AE
S1130B80B1898C91837080648C93938D848D981338
S1130B9006C00288F389E02D80818F7D80830895CB
S1130BA0EF92FF920F931F93CF93DF93EC0181E0B9
S1130BB0888F9B8D8C8D981305C0E889F989808175
S1130BC085FD26C0F62E0B8D10E00F5F1F4F0F73AF
S1130BD01127E02E8C8DE8120CC00FB607FCFACF5B
S1130BE0E889F989808185FFF5CFCE010E94AE05A1
S1130BF0F1CF8B8DFE01E80FF11DE35AFF4FF08218
S1130C009FB7F8940B8FEA89FB89808180620AC0C0
S1130C109FB7F894EE89FF896083E889F989808118
S1130C208370806480839FBF81E090E0DF91CF91E7
S1130C301F910F91FF90EF900895CF93DF93EC01F4
S1130C40888D8823C9F0EA89FB89808185FD05C0E8
S1130C50A889B9898C9186FD0FC00FB607FCF5CF22
S1130C60808185FFF2CFA889B9898C9185FFEDCF6A
S1130C70CE010E94AE05E7CFDF91CF910895CF92C8
S1130C80DF92EF92FF921F93CF93DF93EC016A01FF
S1130C907B01122FE889F98982E080834115514E46
S1130CA061057105B1F060E079E08DE390E0A701A2
S1130CB096010E949B0BDA01C9010197A109B109B0
S1130CC0B695A795979587959C01211580E13807DE
S1130CD0A8F0E889F989108260E874E88EE190E070
S1130CE0A70196010E949B0BDA01C9010197A10992
S1130CF0B109B695A795979587959C01EC85FD85D7
S1130D003083EE85FF852083188EEC89FD8910835E
S1130D10EA89FB89808180618083EA89FB898081FB
S1130D2088608083EA89FB89808180688083EA897E
S1130D30FB8980818F7D8083DF91CF911F91FF900C
S1130D40EF90DF90CF9008951F920F920FB60F92FD
S1130D5011242F938F939F93EF93FF93E091DF01DF
S1130D60F091E0018081E091E501F091E60182FDDE
S1130D7012C090818091E8018F5F8F732091E90107
S1130D80821751F0E091E801F0E0E153FE4F958FB6
S1130D908093E80101C08081FF91EF919F918F9131
S1130DA02F910F900FBE0F901F9018951F920F92C6
S1130DB00FB60F9211242F933F934F935F936F932A
S1130DC07F938F939F93AF93BF93EF93FF938FEC96
S1130DD091E00E94AE05FF91EF91BF91AF919F9179
S1130DE08F917F916F915F914F913F912F910F90D0
S1130DF00FBE0F901F9018958FEC91E00E94630531
S1130E0021E0892B09F420E0822F0895EFECF1E032
S1130E101382128288EE93E0A0E0B0E0848395838D
S1130E20A683B78380E991E09183808385EC90E089
S1130E309587848784EC90E09787868780EC90E0A0
S1130E40918B808B81EC90E0938B828B82EC90E091
S1130E50958B848B86EC90E0978B868B118E128E0B
S1130E60138E148E089508950E942D080E9433074E
S1130E700E948900C0EAD5E00E94BD002097E1F3FA
S1130E800E94A005F9CFCF92DF92EF92FF920F93C9
S1130E901F93CF93DF936C017A018B01C0E0D0E004
S1130EA0CE15DF0581F0D8016D918D01D601ED914C
S1130EB0FC910190F081E02DC6010995892B11F078
S1130EC02196EECF7E01C701DF91CF911F910F9143
S1130ED0FF90EF90DF90CF900895DB0114964D9131
S1130EE05C9115976D917C91DC01ED91FC910280F0
S1130EF0F381E02D0994DC01ED91FC910190F081E6
S1130F00E02D09941F920F920FB60F9211242F9384
S1130F103F938F939F93AF93BF9380916D02909172
S1130F206E02A0916F02B091700230916C0223E0C6
S1130F30230F2D3720F40196A11DB11D05C026E80D
S1130F40230F0296A11DB11D20936C0280936D02A4
S1130F5090936E02A0936F02B0937002809171021D
S1130F6090917202A0917302B09174020196A11D36
S1130F70B11D8093710290937202A0937302B09397
S1130F807402BF91AF919F918F913F912F910F90D8
S1130F900FBE0F901F9018953FB7F894809171027F
S1130FA090917202A0917302B091740226B5A89B2D
S1130FB005C02F3F19F00196A11DB11D3FBFBA2FE7
S1130FC0A92F982F8827820F911DA11DB11DBC0147
S1130FD0CD0142E0660F771F881F991F4A95D1F70C
S1130FE008958F929F92AF92BF92CF92DF92EF9229
S1130FF0FF926B017C010E94CC074B015C01C11480
S1131000D104E104F10401F10E949A0B0E94CC077F
S1131010DC01CB0188199909AA09BB09883E9340D0
S1131020A105B10560F321E0C21AD108E108F10875
S113103088EE880E83E0981EA11CB11CC114D10453
S1131040E104F10419F7DBCFFF90EF90DF90CF902C
S1131050BF90AF909F908F900895789484B58260EC
S113106084BD84B5816084BD85B5826085BD85B548
S1131070816085BDEEE6F0E0808181608083E1E8F7
S1131080F0E010828081826080838081816080832F
S1131090E0E8F0E0808181608083E1EBF0E0808132
S11310A084608083E0EBF0E0808181608083EAE704
S11310B0F0E080818460808380818260808380818D
S11310C0816080838081806880831092C10008954C
S11310D08E3008F08E502091060190E4299F9001F3
S11310E011248770822B80937C0080917A00806425
S11310F080937A0080917A0086FDFCCF80917800FD
S11311002091790090E0922B0895833081F028F4A7
S1131110813099F08230A1F008958730A9F08830A9
S1131120B9F08430D1F4809180008F7D03C0809128
S113113080008F7780938000089584B58F7702C0F4
S113114084B58F7D84BD08958091B0008F7703C0EE
S11311508091B0008F7D8093B0000895CF93DF938A
S113116090E0FC01E458FF4F2491FC01E057FF4F4D
S11311708491882361F190E0880F991FFC01E25566
S1131180FF4FC591D491FC01EC55FF4FA591B4914B
S1131190611109C09FB7F8948881209582238883C0
S11311A0EC912E230BC0623061F49FB7F8948881D0
S11311B0322F309583238883EC912E2B2C939FBF61
S11311C006C08FB7F894E8812E2B28838FBFDF9158
S11311D0CF9108951F93CF93DF93282F30E0F90127
S11311E0E859FF4F8491F901E458FF4FD491F90174
S11311F0E057FF4FC491CC23C1F0162F81110E94F8
S11312008508EC2FF0E0EE0FFF1FEC55FF4FA59182
S1131210B4919FB7F894111104C08C91D095D82340
S113122002C0EC91DE2BDC939FBFDF91CF911F9125
S113123008950895FC01808191810C945B0CCF93F7
S1131240DF93EC0188819981009711F00E945B0C77
S1131250198218821D821C821B821A82DF91CF910F
S113126008950F931F93CF93DF93EC018B016F5F6E
S11312707F4F888199810E94E40C009731F0998313
S113128088831B830A8381E001C080E0DF91CF91D2
S11312901F910F910895CF93DF93EC018881998179
S11312A0892B29F08A819B818617970760F4CE01E8
S11312B00E943109882341F08C819D81892B19F486
S11312C0E881F981108281E0DF91CF910895EF9256
S11312D0FF920F931F93CF93DF93EC017B018A015D
S11312E0BA010E944B09811104C0CE010E941F095A
S11312F007C01D830C83B701888199810E94EE0D7C
S1131300CE01DF91CF911F910F91FF90EF9008953F
S1131310FC011182108213821282158214826115DB
S1131320710551F0FB0101900020E9F73197AF01FD
S1131330461B570B0C94670908950F931F93CF9383
S1131340DF938C01EB01FC01808191810097D1F046
S1131350688179816115710599F029E139E0232BC0
S113136079F0428153812C813D814217530740F02B
S11313700E94EE0D8C819D81F8019583848313C0B6
S11313800E945B0C88819981F801918380838A8112
S11313909B81938382838C819D819583848319822D
S11313A018821B821A821D821C82DF91CF911F91A9
S11313B00F910895CF93DF93EC01FB0186179707F4
S11313C061F0608171816115710529F04481558155
S11313D00E94670902C00E941F09CE01DF91CF91CC
S11313E00895FC01118210821382128215821482E4
S11313F00C94DA09CF93DF93EC018617970711F069
S11314000E949D09CE01DF91CF910895CF93DF9380
S1131410EC016115710559F0FB0101900020E9F719
S11314203197AF01461B570B0E94670902C00E9407
S11314301F09CE01DF91CF910895CF93DF9300D0A0
S1131440CDB7DEB7FC01118210821382128215829D
S1131450148269831A82BE016F5F7F4F0E94060A5D
S11314600F900F90DF91CF9108950F931F93CF9317
S1131470DF93CDB7DEB762970FB6F894DEBF0FBE29
S1131480CDBF8C01CB01F80111821082138212822C
S11314901582148250E0BE016F5F7F4F0E94040EDC
S11314A0BE016F5F7F4FC8010E94060A62960FB6A5
S11314B0F894DEBF0FBECDBFDF91CF911F910F9186
S11314C00895EF92FF920F931F93CF93DF936115CB
S11314D0710511F480E01CC041155105C1F07B0178
S11314E0EC018C819D818A01080F191FB801CE017E
S11314F00E944B09882371F3288139818C819D8155
S1131500B701820F931F0E94EE0D1D830C8381E0AF
S1131510DF91CF911F910F91FF90EF900895CF939A
S1131520DF9300D0CDB7DEB769831A8241E050E083
S1131530BE016F5F7F4F0E94610A0F900F90DF9191
S1131540CF910895CF93DF93EC01FB014481558142
S1131550608171810E94610A811103C0CE010E94E1
S11315601F09CE01DF91CF910895CF93DF93EC0152
S11315700E948F0A811103C0CE010E941F09CE016F
S1131580DF91CF910895FC0124813581232B31F41F
S113159021E061157105A1F0FB0108C0FC01808107
S11315A091816115710531F421E0FC01808188236A
S11315B039F005C00E94E50D21E0892B09F020E0F7
S11315C0822F0895FC01248135816217730748F442
S11315D080819181009729F0FC01E60FF71F80813B
S11315E0089580E008950C94E20ACF93DF93FC0100
S11315F0248135814217530768F4C081D18170E09A
S1131600CE01840F951F0E94DA0D009719F08C1BF0
S11316109D0B02C08FEF9FEFDF91CF91089540E0C3
S113162050E00C94F50ABF92CF92DF92EF92FF92B2
S11316300F931F93CF93DF937C016B018A01E90120
S11316402417350720F4812F8901C42FD82F63E88C
S113165071E0C7010E948809D60114968D919C916E
S1131660159708171907C8F48C179D0708F4EC019F
S1131670D601ED91FC911197EC0FFD1FB080108203
S11316806D917C91600F711FC7010E94060AD601FB
S1131690ED91FC91EC0FFD1FB082C701DF91CF915A
S11316A01F910F91FF90EF90DF90CF90BF9008951E
S11316B0CF93DF93DC011496ED91FC9115976E178F
S11316C07F0730F54115510519F1DF01A61BB70B52
S11316D09A01A417B50708F49D01DB01EC01888188
S11316E09981E21BF30BFD83EC83AF01461B570B7F
S11316F0260F371FBC01620F731F8A0F9B1F0E94A6
S1131700F50DE881F9818C819D81E80FF91F108224
S1131710DF91CF9108954FEF5FEF0C94580BFC01CC
S113172080819181009711F00C94AA0D60E070E023
S1131730CB0108950895A1E21A2EAA1BBB1BFD013B
S11317400DC0AA1FBB1FEE1FFF1FA217B307E4079C
S1131750F50720F0A21BB30BE40BF50B661F771FF4
S1131760881F991F1A9469F76095709580959095D4
S11317709B01AC01BD01CF010895EE0FFF1F059041
S1131780F491E02D09940F931F93CF93DF9382304C
S1131790910510F482E090E0E0917702F0917802F4
S11317A020E030E0A0E0B0E0309719F140815181B1
S11317B00281138148175907C8F08417950769F403
S11317C0109731F012960C93129713961C9327C01E
S11317D0009377021093780222C02115310519F085
S11317E04217530718F49A01BD01EF01DF01F80114
S11317F0DBCF21153105F9F0281B390B24303105D5
S113180080F48A819B816115710521F0FB0193832A
S1131810828304C09093780280937702FE0132960B
S113182044C0FE01E20FF31F8193919322503109CA
S1131830398328833AC02091750230917602232B94
S113184041F42091020130910301309376022093F8
S1131850750220910001309101012115310541F4F7
S11318602DB73EB74091040150910501241B350B5F
S1131870E0917502F0917602E217F307A0F42E1BB3
S11318803F0B2817390778F0AC014E5F5F4F2417E0
S1131890350748F04E0F5F1F509376024093750250
S11318A08193919302C0E0E0F0E0CF01DF91CF910A
S11318B01F910F910895CF93DF93009709F481C08E
S11318C0FC01329713821282A0917702B0917802C0
S11318D0109781F420813181820F931F209175022A
S11318E0309176022817390751F5F0937602E09388
S11318F0750267C0ED0120E030E0CE17DF0740F449
S11319004A815B819E0141155105F1F0EA01F5CF51
S1131910D383C28340815181840F951FC817D9078F
S113192059F488819981840F951F0296918380834D
S11319308A819B81938382832115310529F4F09355
S11319407802E09377023DC0E901FB83EA83499181
S11319505991C40FD51FEC17FD0761F48081918163
S1131960840F951F0296E90199838883828193816C
S11319709B838A83E0E0F0E012968D919C9113970B
S1131980009719F0FD01DC01F7CF8D919C9111971F
S11319909D012E5F3F4F820F931F2091750230915E
S11319A076022817390769F4309729F410927802DF
S11319B01092770202C013821282B0937602A0932F
S11319C07502DF91CF910895A0E0B0E0EAEEFCE06B
S11319D00C945D0EEC01009721F4CB010E94C30B23
S11319E0B4C0FC01E60FF71F9C0122503109E21735
S11319F0F30708F4A8C0D9010D911C91119706179B
S1131A001707B0F00530110508F49BC0C80104970E
S1131A108617970708F495C002501109061B170B87
S1131A20019311936D937C93CF010E945B0C89C049
S1131A305B01A01AB10A4C01800E911EA09177029D
S1131A40B0917802612C712CE12CF12C109709F4DF
S1131A5046C08D919C911197A815B905B1F56C01FB
S1131A6042E0C40ED11CCA14DB0478F14C018A187C
S1131A709B08640142E0C40ED11C1296BC901297DC
S1131A801396AC91B5E0CB16D10440F0B282A38397
S1131A9091828082D9016D937C9309C00E5F1F4FA0
S1131AA0800F911FF90191838083EB2DFA2FE114AC
S1131AB0F10431F0D7011396FC93EE93129741C0D1
S1131AC0F0937802E09377023CC06816790608F434
S1131AD03C017D0112960D90BC91A02DB7CF809151
S1131AE075029091760288169906E1F466167706D7
S1131AF0C8F48091000190910101009741F48DB7E1
S1131B009EB74091040150910501841B950BE81781
S1131B10F907C8F4F0937602E0937502F901718332
S1131B2060830FC0CB010E94C30B7C01009759F066
S1131B30A801BE010E94D10DCE010E945B0CC70119
S1131B4004C0CE0102C080E090E0CDB7DEB7EEE085
S1131B500C94790E1F93FC0199278827BC01E89403
S1131B6011911032E9F3193010F01E30C8F31B3212
S1131B7051F01D3249F4689406C00E941A0E610F98
S1131B80711D811D911D119110531A30B0F33EF453
S1131B9090958095709561957F4F8F4F9F4F1F91C2
S1131BA00895FB01DC0102C001900D9241505040A8
S1131BB0D8F70895FC018191861721F08823D9F77D
S1131BC0992708953197CF010895FB01DC018D9188
S1131BD0019080190110D9F3990B0895FB01DC01E0
S1131BE001900D920020E1F70895FB01DC014150C2
S1131BF0504048F001900D920020C9F701C01D9299
S1131C0041505040E0F708954532510520F44230E8
S1131C1010F00C940F0EFB011082CB010895BB272A
S1131C204A3031F4992322F4BDE2909581959F4F77
S1131C300C94300E592F482F372F262F660F771FFD
S1131C40881F991F660F771F881F991F620F731FC4
S1131C50841F951F660F771F881F991F0895BB2740
S1131C60FB015527AA27880F991FAA1FA41710F054
S1131C70A41B83955051B9F7A05DAA3308F0A95D60
S1131C80A193009779F7B111B1931192CB010C9400
S1131C90490EDC01FC01672F71917723E1F732973C
S1131CA004C07C916D9370836291AE17BF07C8F333
S1131CB008952F923F924F925F926F927F928F92EC
S1131CC09F92AF92BF92CF92DF92EF92FF920F93C7
S1131CD01F93CF93DF93CDB7DEB7CA1BDB0B0FB6D1
S1131CE0F894DEBF0FBECDBF09942A88398848888E
S1131CF05F846E847D848C849B84AA84B984C88424
S1131D00DF80EE80FD800C811B81AA81B981CE0F1A
S1131D10D11D0FB6F894DEBF0FBECDBFED010895FF
S1131D2010E0CEE5D0E004C0FE010E94BD0B219678
S10D1D30CF35D107C9F7F894FFCFAF
S1131D3A00007902200001010002000300040005EA
S1131D4A0006000101000000000101010100000079
S1131D5A000101010041524D0049474E4954455280
S1131D6A2041524D454400464952450049474E498F
S1131D7A54455220464952494E4700505552474508
S1131D8A0049474E495445522050555247494E47F7
S1131D9A00434C4F53450049474E4954455220434A
S1131DAA4C4F5345440056414C564520544F4747DF
S1131DBA4C4544000E000F00100011000000000002
S1111DCAD005430791051D0663057D056F05D1
S9030000FC
